{
  "_format": "hh3-artifact-1",
  "contractName": "Fund",
  "sourceName": "contracts/Fund.sol",
  "abi": [
    {
      "inputs": [
        {
          "internalType": "uint256",
          "name": "locktime_",
          "type": "uint256"
        }
      ],
      "stateMutability": "nonpayable",
      "type": "constructor"
    },
    {
      "inputs": [],
      "name": "MINIMUM",
      "outputs": [
        {
          "internalType": "uint256",
          "name": "",
          "type": "uint256"
        }
      ],
      "stateMutability": "view",
      "type": "function"
    },
    {
      "inputs": [],
      "name": "TARGET",
      "outputs": [
        {
          "internalType": "uint256",
          "name": "",
          "type": "uint256"
        }
      ],
      "stateMutability": "view",
      "type": "function"
    },
    {
      "inputs": [],
      "name": "deployTime",
      "outputs": [
        {
          "internalType": "uint256",
          "name": "",
          "type": "uint256"
        }
      ],
      "stateMutability": "view",
      "type": "function"
    },
    {
      "inputs": [],
      "name": "fund",
      "outputs": [
        {
          "internalType": "bool",
          "name": "",
          "type": "bool"
        }
      ],
      "stateMutability": "payable",
      "type": "function"
    },
    {
      "inputs": [
        {
          "internalType": "address",
          "name": "",
          "type": "address"
        }
      ],
      "name": "funds",
      "outputs": [
        {
          "internalType": "uint256",
          "name": "",
          "type": "uint256"
        }
      ],
      "stateMutability": "view",
      "type": "function"
    },
    {
      "inputs": [
        {
          "internalType": "uint256",
          "name": "weiAmount_",
          "type": "uint256"
        }
      ],
      "name": "getConversionRate",
      "outputs": [
        {
          "internalType": "uint256",
          "name": "",
          "type": "uint256"
        }
      ],
      "stateMutability": "view",
      "type": "function"
    },
    {
      "inputs": [
        {
          "internalType": "address",
          "name": "funder_",
          "type": "address"
        }
      ],
      "name": "getFunds",
      "outputs": [
        {
          "internalType": "uint256",
          "name": "",
          "type": "uint256"
        }
      ],
      "stateMutability": "view",
      "type": "function"
    },
    {
      "inputs": [],
      "name": "getLockTime",
      "outputs": [
        {
          "internalType": "uint256",
          "name": "",
          "type": "uint256"
        }
      ],
      "stateMutability": "view",
      "type": "function"
    },
    {
      "inputs": [],
      "name": "getPrice",
      "outputs": [
        {
          "internalType": "int256",
          "name": "",
          "type": "int256"
        }
      ],
      "stateMutability": "view",
      "type": "function"
    },
    {
      "inputs": [],
      "name": "getPriceFeedDecimals",
      "outputs": [
        {
          "internalType": "uint8",
          "name": "",
          "type": "uint8"
        }
      ],
      "stateMutability": "view",
      "type": "function"
    },
    {
      "inputs": [],
      "name": "isPeriodOver",
      "outputs": [
        {
          "internalType": "bool",
          "name": "",
          "type": "bool"
        }
      ],
      "stateMutability": "view",
      "type": "function"
    },
    {
      "inputs": [],
      "name": "isTargetReached",
      "outputs": [
        {
          "internalType": "bool",
          "name": "",
          "type": "bool"
        }
      ],
      "stateMutability": "view",
      "type": "function"
    },
    {
      "inputs": [],
      "name": "locktime",
      "outputs": [
        {
          "internalType": "uint256",
          "name": "",
          "type": "uint256"
        }
      ],
      "stateMutability": "view",
      "type": "function"
    },
    {
      "inputs": [],
      "name": "owner",
      "outputs": [
        {
          "internalType": "address",
          "name": "",
          "type": "address"
        }
      ],
      "stateMutability": "view",
      "type": "function"
    },
    {
      "inputs": [],
      "name": "refund",
      "outputs": [
        {
          "internalType": "bool",
          "name": "",
          "type": "bool"
        }
      ],
      "stateMutability": "nonpayable",
      "type": "function"
    },
    {
      "inputs": [],
      "name": "setDeployTime",
      "outputs": [],
      "stateMutability": "nonpayable",
      "type": "function"
    },
    {
      "inputs": [
        {
          "internalType": "address",
          "name": "newOwner_",
          "type": "address"
        }
      ],
      "name": "transferOwnership",
      "outputs": [],
      "stateMutability": "nonpayable",
      "type": "function"
    },
    {
      "inputs": [],
      "name": "withdraw",
      "outputs": [
        {
          "internalType": "bool",
          "name": "",
          "type": "bool"
        }
      ],
      "stateMutability": "nonpayable",
      "type": "function"
    }
  ],
  "bytecode": "0x6080604052348015600e575f5ffd5b50604051610d42380380610d42833981016040819052602b91607d565b60025542600155600380546001600160a01b0319908116339081179092555f918252602082905260408220919091556004805490911673694aa1769357215de4fac081bf1f309adc3253061790556093565b5f60208284031215608c575f5ffd5b5051919050565b610ca2806100a05f395ff3fe608060405260043610610105575f3560e01c806398d5fdca11610092578063c0a4d64d11610062578063c0a4d64d14610279578063cc1f2afa1461028d578063decebbce146102a8578063e2ae93fb146102dc578063f2fde38b14610307575f5ffd5b806398d5fdca1461022e5780639c484b5c14610242578063b60d42881461025d578063bcc38e8614610265575f5ffd5b80635e098f05116100d85780635e098f051461018357806361c533b4146101a05780636e5b6b28146101c35780637a40624b146101e25780638da5cb5b146101f7575f5ffd5b806335cbdd6d146101095780633ccfd60b14610120578063422f8c0a14610149578063590e1ae31461016f575b5f5ffd5b348015610114575f5ffd5b5061011e42600155565b005b34801561012b575f5ffd5b50610134610326565b60405190151581526020015b60405180910390f35b348015610154575f5ffd5b5061015d6104d7565b60405160ff9091168152602001610140565b34801561017a575f5ffd5b50610134610551565b34801561018e575f5ffd5b50671bc16d674ec80000471015610134565b3480156101ab575f5ffd5b506101b560025481565b604051908152602001610140565b3480156101ce575f5ffd5b506101b56101dd366004610a48565b6106e7565b3480156101ed575f5ffd5b506101b560015481565b348015610202575f5ffd5b50600354610216906001600160a01b031681565b6040516001600160a01b039091168152602001610140565b348015610239575f5ffd5b506101b561078f565b34801561024d575f5ffd5b506101b5670de0b6b3a764000081565b610134610804565b348015610270575f5ffd5b5061013461097b565b348015610284575f5ffd5b506002546101b5565b348015610298575f5ffd5b506101b5671bc16d674ec8000081565b3480156102b3575f5ffd5b506101b56102c2366004610a5f565b6001600160a01b03165f9081526020819052604090205490565b3480156102e7575f5ffd5b506101b56102f6366004610a5f565b5f6020819052908152604090205481565b348015610312575f5ffd5b5061011e610321366004610a5f565b610994565b6003545f906001600160a01b031633146103775760405162461bcd60e51b815260206004820152600d60248201526c2737ba103a34329037bbb732b960991b60448201526064015b60405180910390fd5b6002546001546103879190610aa0565b4210156103c95760405162461bcd60e51b815260206004820152601060248201526f119d5b991cc8185c99481b1bd8dad95960821b604482015260640161036e565b671bc16d674ec800004710156104165760405162461bcd60e51b815260206004820152601260248201527115185c99d95d081b9bdd081c995858da195960721b604482015260640161036e565b6003546040515f916001600160a01b03169047908381818185875af1925050503d805f8114610460576040519150601f19603f3d011682016040523d82523d5f602084013e610465565b606091505b50509050806104b65760405162461bcd60e51b815260206004820152601860248201527f4661696c656420746f2077697468647261772045746865720000000000000000604482015260640161036e565b50506003546001600160a01b03165f90815260208190526040812055600190565b5f60045f9054906101000a90046001600160a01b03166001600160a01b031663313ce5676040518163ffffffff1660e01b8152600401602060405180830381865afa158015610528573d5f5f3e3d5ffd5b505050506040513d601f19601f8201168201806040525081019061054c9190610ab9565b905090565b5f6002546001546105629190610aa0565b4210156105a45760405162461bcd60e51b815260206004820152601060248201526f119d5b991cc8185c99481b1bd8dad95960821b604482015260640161036e565b671bc16d674ec8000047106105f05760405162461bcd60e51b815260206004820152601260248201527115185c99d95d081dd85cc81c995858da195960721b604482015260640161036e565b335f90815260208190526040902054806106415760405162461bcd60e51b8152602060048201526012602482015271139bc8199d5b991cc81d1bc81c99599d5b9960721b604482015260640161036e565b335f818152602081905260408082208290555190919083908381818185875af1925050503d805f811461068f576040519150601f19603f3d011682016040523d82523d5f602084013e610694565b606091505b50509050806106de5760405162461bcd60e51b81526020600482015260166024820152752330b4b632b2103a37903932b33ab7321022ba3432b960511b604482015260640161036e565b60019250505090565b5f5f6106f161078f565b90505f60045f9054906101000a90046001600160a01b03166001600160a01b031663313ce5676040518163ffffffff1660e01b8152600401602060405180830381865afa158015610744573d5f5f3e3d5ffd5b505050506040513d601f19601f820116820180604052508101906107689190610ab9565b61077390600a610bbc565b61077d8584610bca565b6107879190610be1565b949350505050565b6004805460408051633fabe5a360e21b815290515f9384936001600160a01b03169263feaf968c928183019260a0928290030181865afa1580156107d5573d5f5f3e3d5ffd5b505050506040513d601f19601f820116820180604052508101906107f99190610c1e565b509195945050505050565b5f6002546001546108159190610aa0565b42106108595760405162461bcd60e51b8152602060048201526013602482015272233ab73234b733903832b934b7b21037bb32b960691b604482015260640161036e565b5f60045f9054906101000a90046001600160a01b03166001600160a01b031663313ce5676040518163ffffffff1660e01b8152600401602060405180830381865afa1580156108aa573d5f5f3e3d5ffd5b505050506040513d601f19601f820116820180604052508101906108ce9190610ab9565b6108d990600a610bbc565b346108e261078f565b6108ec9190610bca565b6108f69190610be1565b9050670de0b6b3a76400008110156109505760405162461bcd60e51b815260206004820152601760248201527f4d696e696d756d2066756e64696e67206e6f74206d6574000000000000000000604482015260640161036e565b335f908152602081905260408120805434929061096e908490610aa0565b9091555060019392505050565b5f60025460015461098c9190610aa0565b421015905090565b6003546001600160a01b031633146109de5760405162461bcd60e51b815260206004820152600d60248201526c2737ba103a34329037bbb732b960991b604482015260640161036e565b6001600160a01b038116610a265760405162461bcd60e51b815260206004820152600f60248201526e496e76616c6964206164647265737360881b604482015260640161036e565b600380546001600160a01b0319166001600160a01b0392909216919091179055565b5f60208284031215610a58575f5ffd5b5035919050565b5f60208284031215610a6f575f5ffd5b81356001600160a01b0381168114610a85575f5ffd5b9392505050565b634e487b7160e01b5f52601160045260245ffd5b80820180821115610ab357610ab3610a8c565b92915050565b5f60208284031215610ac9575f5ffd5b815160ff81168114610a85575f5ffd5b6001815b6001841115610b1457808504811115610af857610af8610a8c565b6001841615610b0657908102905b60019390931c928002610add565b935093915050565b5f82610b2a57506001610ab3565b81610b3657505f610ab3565b8160018114610b4c5760028114610b5657610b72565b6001915050610ab3565b60ff841115610b6757610b67610a8c565b50506001821b610ab3565b5060208310610133831016604e8410600b8410161715610b95575081810a610ab3565b610ba15f198484610ad9565b805f1904821115610bb457610bb4610a8c565b029392505050565b5f610a8560ff841683610b1c565b8082028115828204841417610ab357610ab3610a8c565b5f82610bfb57634e487b7160e01b5f52601260045260245ffd5b500490565b805169ffffffffffffffffffff81168114610c19575f5ffd5b919050565b5f5f5f5f5f60a08688031215610c32575f5ffd5b610c3b86610c00565b60208701516040880151606089015192975090955093509150610c6060808701610c00565b9050929550929590935056fea26469706673582212201c7bdab3a73e76a67070474ec54a92b9a251d40fa877fe8ed6f772ff2ab1d1a164736f6c634300081c0033",
  "linkReferences": {},
  "deployedLinkReferences": {},
  "immutableReferences": {},
  "inputSourceName": "project/contracts/Fund.sol",
  "buildInfoId": "solc-0_8_28-ef56998997f1c7420a75296b9519eeb24fd13a0f"
}